:100000000C943E000C9429070C9452070C945B004E
:100010000C945B000C945B000C945B000C945B00F4
:100020000C945B000C945B000C945B000C945B00E4
:100030000C945B000C945B000C945B000C945B00D4
:100040000C945B000C945B000C945B000C945B00C4
:100050000C945B00003E41413E00427F40000000A6
:100060007E00007E1111117E7F494949363E414193
:1000700041227F4141221C000600000011241FBEC6
:10008000CFE5D8E0DEBFCDBF11E0A0E6B0E0E4E709
:10009000F3E102C005900D92AC39B107D9F714E035
:1000A000ACE9B1E001C01D92A634B107E1F70E94AE
:1000B0007A070C94B8090C940000CF93DF93E0ED1D
:1000C000F3E02FEF219333E0E03EF307D9F7E82F79
:1000D000F92FCF0131913032E1F3232F20532A3011
:1000E00008F045C02093AD033253333008F03FC0D1
:1000F0000196FC01308101963032D9F381E090E025
:1001000002C0880F991F2A95E2F78150C0EDD3E015
:1001100020E028C090539A3050F590E007C0492F56
:10012000440F942F990F990F940F930F5E2F4F2F19
:10013000319130533A3098F38917C8F0E0EDF3E08D
:1001400030E004C06191691791F03F5F3217D0F33E
:10015000203169F099932F5FA52FB42FFD019D9158
:100160009032E1F390819923A9F681E001C080E00B
:10017000DF91CF910895AF92BF92DF92EF92FF92FD
:100180000F931F93DF93CF9300D000D0CDB7DEB78E
:10019000198281E08A8383E08B8382E08C831091D3
:1001A000AD03812F8695E82EEE0C012F081B000F62
:1001B0001092F6031092F7031092F8031092F903CD
:1001C0001092FA031092FB031092FC031092FD03AD
:1001D0001092FE031092FF0310920004109201048B
:1001E0001092020410920304109204041092050469
:1001F00080E090E0AE014F5F5F4F1BC0123011F402
:100200006D0D0FC0D501FC90BA01620F731FDB01A9
:100210007C91133011F0143029F46F2D660F660FA6
:10022000672B60832F5F3F4F3196622F201730F38B
:1002300001968E1578F4D82EDD0CFC01EE0FFF1F11
:10024000EE0FFF1FEA50FC4F20E030E05A01A80EED
:10025000B11CEBCF0F900F900F900F90CF91DF91CB
:100260001F910F91FF90EF90DF90BF90AF90089596
:10027000FF920F931F93CF93DF93E5EEF3E0ACE98A
:10028000B1E010821C92118211961C921197128279
:1002900012961C921297138213961C9213973496FF
:1002A000149683E0E53FF80761F70091E4031091AD
:1002B000F503C0EDD3E071E069916F3F41F180E05B
:1002C00090E013C0A901FD902F5F3F4FF61651F447
:1002D000EE0FFF1FEE0FFF1FE40FF51FEB51FC4F5A
:1002E000708302C0211770F30196E82F801758F42D
:1002F000DC01AA0FBB1FAA0FBB1FAA50BC4F20E0F6
:1003000030E0F0E0EFCF83E0C03ED807A9F6DF9100
:10031000CF911F910F91FF900895E6E0F4E01082D5
:10032000118212821382349684E0E634F807B9F71A
:100330000895AF92BF92CF92DF92EF92FF920F9308
:100340001F93DF93CF930F92CDB7DEB71092E003E8
:100350001092E1031092E2031092E303FF24EE24D3
:10036000DD24D39453C00F2D10E0E091B003F09141
:10037000B103EE0FFF1FEE0FFF1F8091B2039091AC
:10038000B303E80FF91FEA50FC4F208130E00F2C37
:1003900002C0359527950A94E2F72170CC24C394C6
:1003A00028C0D501AA0FBB1FAA0FBB1FAE54BC4F5C
:1003B000F501EE0FFF1FEE0FFF1FE255FC4F02800D
:1003C000F381E02DEE0FFF1FEE0FFF1F8D919C912B
:1003D0001197E80FF91FEA50FC4F808190E0002E42
:1003E00002C0959587950A94E2F78170821769F4A7
:1003F000C394AC2CBB248EEA93E029830E94D608D8
:100400002981A816B9066CF213C0F3948091AD034C
:10041000F81608F4A8CF8E2D0F90CF91DF911F9181
:100420000F91FF90EF90DF90CF90BF90AF90089525
:10043000E091AD03F0E03197E01BF10BE052FC4F8F
:10044000D082E394E2CF1F93FC0128E030E33193A4
:100450002150E9F74091AE035091AF0360E071E0A5
:100460001BC0F901EE0FFF1FEE0FFF1FEE54FC4FF4
:10047000A081F901EE0FFF1FEE0FFF1FE255FC4FA9
:10048000E281F0E0EE0FFF1FEE0FFF1FEA0FF11DFC
:10049000E456FE4F70836F5F262F30E042175307FC
:1004A00004F7E091B003F091B103EE0FFF1FEE0FE0
:1004B000FF1F2091B2033091B303E20FF31FEA5004
:1004C000FC4F6081B0E0A0E070E017E224C04B2F49
:1004D00050E0FA01E052FC4F20812130D9F4FC01B8
:1004E000EA0FF11D2B2F2F5B2083AF5F2091AD030F
:1004F00030E021503040241B350BAB0102C0559534
:1005000047952A95E2F740FD05C0FC01EA0FF11D71
:100510001083AF5FBF5F2091AD03B217C0F28A0FA7
:10052000911DFC0110821F9108952F923F924F92CE
:100530005F926F927F928F929F92AF92BF92CF9273
:10054000DF92EF92FF920F931F93DF93CF93CDB77C
:10055000DEB768970FB6F894DEBF0FBECDBF782E1A
:10056000962E882466246394F5E02F2E312C2C0ED1
:100570003D1E55245A9444244394472D692D8EEAF8
:1005800093E050E070E00E94DD088EEA93E00E9464
:10059000D608BB24B3948130910509F0BB24072D04
:1005A000000F000F090D8EEA93E00E94D6088130FB
:1005B000910519F41091AD0303C00E949901182F01
:1005C000112309F4DEC08EEA93E00E94D60884303D
:1005D000910591F088309105E9F08230910509F597
:1005E000882011F480E003C081E0BB24B394909193
:1005F000AD03923099F4C5C0113029F48091AD0358
:10060000833079F4D7C0123061F48091AD03843027
:1006100041F4EAC0113009F0B4C0CCC0882309F01D
:10062000B0C019824A821B825C824D821E825F8228
:100630001886872D90E0988B8F87E92DF0E0FA8B54
:10064000E98BE02EFF24EE0CFF1CEE0CFF1C76E085
:10065000C72E74E0D72ECE0CDF1CC60101969C8BF2
:100660008B8BF6013296FE8BED8BC6010396988F2D
:100670008F8BBD860E8710E001E05601C12EDD2470
:100680006091E40370E08F859889860F971FE1E001
:10069000F0E0EC0FFD1FEC0DFD1D2081820F911D80
:1006A0000E949109782E6091F50370E089899A89FA
:1006B000860F971FF101EC0DFD1D2081820F911D0A
:1006C0000E949109982E272D30E0482F50E0C90153
:1006D000880F991F880F991F840F951FFC01EB51FC
:1006E000FC4F6081613049F5FC01E456FE4F81E02A
:1006F00090E06081662311F080E090E0602F662535
:10070000860F911D0097C9F03A8729875C874B8730
:100710008EEA93E049855A856B857C850E94240981
:10072000882359F4F701EC0DFD1DEA5FFB4F808132
:10073000882319F491E0908320CF002321F0133017
:1007400011F41FEF00E01F5F143008F497CF65012C
:100750008EEA93E00E94D6088130910581F48820CA
:1007600071F4F5011082EB89FC891082ED89FE8914
:100770001082EF89F88D1082882483947CCFBD8409
:100780000E85BB20B9F4E02FF0E0EE0FFF1FEE0F57
:10079000FF1FEA5FFB4F10821182128213828EEAE2
:1007A00093E00E9403098EEA93E00E94F108762EFE
:1007B000982EEBCE81E068960FB6F894DEBF0FBEA0
:1007C000CDBFCF91DF911F910F91FF90EF90DF9000
:1007D000CF90BF90AF909F908F907F906F905F90E1
:1007E0004F903F902F900895BB24B3941ACFFC01F3
:1007F000605D6083118208958BBBA898A9986130D1
:1008000019F4AB9AAC9802C0AC9AAB98AA9A82E061
:100810008A95F1F700C0AA988FEC97E00197F1F75D
:1008200000C0000008958BBBA89AA998613019F404
:10083000AB9AAC9802C0AC9AAB98AA9A82E08A951F
:10084000F1F700C0AA988FEC97E00197F1F700C08C
:10085000000008958FEF8ABB84B38F6184BB8FE360
:1008600061E00E94FC038FE362E00E94FC030895B4
:100870000F931F9318EB812F61E00E94FC0380E42B
:1008800061E00E94FC0300E480E061E00E94130448
:100890000150D1F7812F62E00E94FC0380E462E006
:1008A0000E94FC0300E480E062E00E941304015017
:1008B000D1F71F5F103CF9F61F910F9108950F9328
:1008C0001F93082F803470F411E0862F8854612F15
:1008D0000E94FC03802F805C612F0E94FC031F910B
:1008E0000F910895005412E0F0CFEF92FF920F9312
:1008F0001F93CF93DF931CEEE12E11E0F12E00E069
:1009000010E0802F885461E00E94FC0380E461E0E5
:100910000E94FC03E801B6E0CC0FDD1FBA95E1F7B9
:10092000C455DE4F899161E00E941304CE15DF05A6
:10093000C9F70F5F1F4FA0E4EA2EF12CEC0EFD1E4D
:1009400008301105F1F6DF91CF911F910F91FF90C3
:10095000EF9008950F931F93CF93DF93162FE4E941
:10096000F1E000E09191891721F00F5F0830D1F795
:100970000FEF812F642F0E945F0485E0089FE00144
:100980001124CC5ADF4F00E0FE018491103410F0A6
:1009900062E001C061E00E9413040F5F2196053000
:1009A00099F7103410F461E001C062E080E00E9429
:1009B0001304DF91CF911F910F910895EF92FF9251
:1009C0000F931F93CF93DF93162F042FE82EE70189
:1009D0007E01F92EE7010EC0873239F4612F615094
:1009E000402F0E94AA041E5F05C0612F402F0E9465
:1009F000AA041A5F8991882379F7DF91CF911F911B
:100A00000F91FF90EF900895262F26952695269515
:100A1000677030E090E04423B1F0F90136E0EE0F6A
:100A2000FF1F3A95E1F7E80FF91FE455FE4F81E00B
:100A300090E002C0880F991F6A95E2F78095908137
:100A4000892380830895F90126E0EE0FFF1F2A9580
:100A5000E1F7E80FF91FE455FE4F81E090E002C096
:100A6000880F991F6A95E2F72081282B208308952B
:100A7000FF920F931F93DF93CF930F92CDB7DEB703
:100A8000062F142FF82E08C08F2D612F422F298397
:100A90000E940405F39429810F15B0F70F90CF91B0
:100AA000DF911F910F91FF900895FF920F931F9375
:100AB000F82E042F162F06C08F2D612F40E00E94C4
:100AC00004051F5F0117C0F71F910F91FF90089554
:100AD000DF92EF92FF920F931F93CF93DF93982FA4
:100AE00090539A3008F04CC0542F56955695569511
:100AF000477095E0899FC0011124FC01EC59F0403A
:100B0000052F10E070E0D801119636E0AA0FBB1F48
:100B10003A95E1F7A60FB71FA455BE4FE80126E0AE
:100B2000CC0FDD1F2A95E1F7C60FD71FC455DE4F46
:100B30008759904028E030E0241B3109649170E02F
:100B4000583050F47B01042E02C0EE0CFF1C0A94B6
:100B5000E2F7D880DE28D882442361F007301105FF
:100B60004CF4022E02C0759567950A94E2F7EC905A
:100B7000E62AEC92319611962196E817F907F1F6DC
:100B8000DF91CF911F910F91FF90EF90DF9008952B
:100B9000AF92BF92CF92DF92EF92FF920F931F938B
:100BA000DF93CF9300D000D000D0CDB7DEB7082FB1
:100BB0008695C82ECC0CD02ED81ADD0C2D2D30E009
:100BC0002F5F3F4F8DE090E0289FB001299F700D6F
:100BD000389F700D11246034710514F06FE370E0DC
:100BE000E62E2C2D30E02F5F3F4F8DE090E0289FC8
:100BF000A001299F500D389F500D112440345105FC
:100C000014F04FE350E0B42E198281E08A8383E030
:100C10008B8382E08C8311E1FF24F39422C0412F67
:100C2000445080E06E2D20E00E943805043089F4A5
:100C3000FE01EF0DF11DA0808A2D86958170805DEB
:100C400060E0412F0E9468058A2D8170805D65E01B
:100C500003C08F2D815D63E0412F0E946805F394EE
:100C6000135FCF14E0F61FE0FF24F3945DEFE52E51
:100C7000E00E24C0812F825060E04B2D0E9455056C
:100C80008E2D823090F4FE01EF0DF11D0081802F3A
:100C900086958170805D612F44E00E946805802FF9
:100CA0008170612F6B5F805D04C0612F6E5F8F2D3F
:100CB000815D44E00E946805F394135FDF14D0F671
:100CC00010E0812F612F40E00E9404051F5F1D305E
:100CD000C1F790E1EE24FF2416C0F80181918F0145
:100CE000813049F482E3622F492F2E839D830E9435
:100CF00068059D812E81B394235FBD1470F3089421
:100D0000E11CF11C935FEC1450F48701000F111FDC
:100D1000000F111F0B511C4F21E1BB24EECF269673
:100D20000FB6F894DEBF0FBECDBFCF91DF911F91FC
:100D30000F91FF90EF90DF90CF90BF90AF9008950C
:100D40000F931F9310E00DE01EC0F901EE0FFF1F7F
:100D5000EE0FFF1FEE54FC4F8081809F802D1124E9
:100D6000682F695EF901EE0FFF1FEE0FFF1FE255BE
:100D7000FC4F4281409F402D1124485E805F20E05F
:100D80000E9438051F5F212F30E08091AE039091C3
:100D9000AF0382179307CCF60E94750410E00DE0B4
:100DA0001EC0F901EE0FFF1FEE0FFF1FEE54FC4FA8
:100DB0008081809F802D1124682F695EF901EE0FDC
:100DC000FF1FEE0FFF1FE255FC4F4281409F402D59
:100DD0001124485E805F21E00E9438051F5F212FAB
:100DE00030E08091AE039091AF0382179307CCF669
:100DF0001F910F9108952CEE31E080E090E00BC040
:100E00001192E217F307E1F701969F01205C3F4F33
:100E10008830910549F0FC0146E0EE0FFF1F4A952E
:100E2000E1F7E455FE4FECCF089581E0849980E02E
:100E300008958C98949A089585B78A6085BF8BB77A
:100E4000806C8BBF81B3837F81BB82B38C6082BB9C
:100E500008951F920F920FB60F9211242F933F9374
:100E60004F935F936F937F938F939F93AF93BF93B2
:100E7000EF93FF9381E08093AC0380E690E00E94C3
:100E80005D09FF91EF91BF91AF919F918F917F91FC
:100E90006F915F914F913F912F910F900FBE0F90E7
:100EA0001F9018951F920F920FB60F9211242F9337
:100EB0003F934F935F936F937F938F939F93AF93E2
:100EC000BF93EF93FF931092AC038AE790E00E94E8
:100ED0005D09FF91EF91BF91AF919F918F917F91AC
:100EE0006F915F914F913F912F910F900FBE0F9097
:100EF0001F9018954F925F926F927F928F929F9260
:100F0000AF92BF92CF92DF92EF92FF920F931F9317
:100F1000DF93CF93CDB7DEB72B970FB6F894DEBF34
:100F20000FBECDBF83E390E00E943F0985E990E0CA
:100F30000E945D090E942A040E9438040E94190739
:100F40000E941C0778948DB79EB7C2970FB6F8948D
:100F50009EBF0FBE8DBF0196782E592E8E010F5F5A
:100F60001F4FB3E0AB2EB12CAC0EBD1E83EB90E057
:100F70000E945D09872D952D62E30E946A0984ED28
:100F800090E00E944A09872D952D0E945D09872DCA
:100F9000952D0E945D00882339F487EE90E00E9431
:100FA0005D098AE091E0F9C08091AD03805D89839D
:100FB0001A828BE091E00E944A09C8010E944A0906
:100FC00083E391E00E945D098091AD03982F96958F
:100FD000292F220F2093E403891B880F8093F503A8
:100FE0000E94BB000E9438010E9438040E94FB0648
:100FF0008091AD030E94C8050E9475045091E403DE
:101000004091F50380E090E031E009C061916623F2
:1010100021F02F5F2417D0F301C030E0019685172F
:1010200048F4FC01EE0FFF1FEE0FFF1FEB51FC4FCA
:1010300020E0F0CF332309F0AEC08EEA93E00E94A7
:10104000D0080E948D019924EE2496C0C601880D17
:10105000911DFC01EB51FC4F2081213009F085C02E
:1010600084569E4FDC018C91882309F07EC0892D27
:10107000682D0E949502882309F477C00E94990187
:10108000C5010E9423028091AC03882339F420C05B
:10109000EFE1FEE43197F1F700C000000E94150770
:1010A0008823B1F706C08FE19EE40197F1F700C0F5
:1010B00000000E9415078823B1F38FEF90E7A2E0AC
:1010C00081509040A040E1F700C000000E94A006BF
:1010D0004E2C4394C50160E54E2D0E94DE048FE343
:1010E00091E00E944A0989E491E00E944A09C50101
:1010F0000E945D0986E591E00E944A09662421C0AC
:10110000F701EE0FFF1FEE0FFF1FE255FC4F82812C
:10111000805D89831A82C8010E944A09F701EE0F97
:10112000FF1FEE0FFF1FEE54FC4F8081805D89830F
:101130001A82C8010E944A098EE591E00E944A097C
:101140006394E62CFF248091AE039091AF038E153B
:101150009F05B4F680E691E00E944A090E948D0145
:101160008EEA93E00E941E09E42C83948091F5039B
:10117000881608F46BCF93948091E403981640F49A
:101180008824C92CDD24CC0CDD1CCC0CDD1CEECF5E
:1011900082E691E002C08AE791E00E945D09E6CE16
:1011A0002FEF3FEFFC01318320830895FC01208164
:1011B00031812F5F3F4FC9010895FC0180819181EA
:1011C000019691838083DC01AA0FBB1FAA0FBB1F6E
:1011D000AE0FBF1F12964D935D936D937C93159741
:1011E0000895FC01A081B181AA0FBB1FAA0FBB1FEC
:1011F000A80FB91FFD01329612966C91129771815A
:10120000828193810895CF93DF93DC012D913C91EE
:101210001197F901EE0FFF1FEE0FFF1FE80FF91FE7
:10122000EF012296628179818A819B812150304031
:1012300011963C932E93DF91CF9108952FEF3FEFBE
:10124000FC01318320830895FC01A081B1819A01C2
:10125000AB0180E090E00CC062817381621773077C
:1012600029F4648175816417750739F00196349605
:10127000A817B9078CF780E0089581E0089590BD24
:1012800089B986E880BD88E18AB908955D9BFECF63
:101290008CB908951F93CF93DF93EC0110E003C046
:1012A0001F5F0E944609FE01E10FF11D8081882326
:1012B000B9F7DF91CF911F9108950E944A098DE0FF
:1012C0000E9446098AE00E94460908955F9BFECF6E
:1012D0008CB10895CF92DF92FF920F931F93DF930B
:1012E000CF930F92CDB7DEB76C018C01FF246983D9
:1012F0000E946609F80181938F01F3946981F616C3
:1013000010F48D30A1F7F601EF0DF11D3197108229
:101310000F90CF91DF911F910F91FF90DF90CF90B1
:10132000089597FB092E07260AD077FD04D00CD02C
:1013300006D000201AF4709561957F4F0895F6F756
:10134000909581959F4F0895AA1BBB1B51E107C043
:10135000AA1FBB1FA617B70710F0A61BB70B881F45
:10136000991F5A95A9F780959095BC01CD010895D4
:04137000F894FFCF1F
:10137400CFEEF8E0E3EEE2FBE920F0E5E6E8EC3A54
:1013840020C2EAEBFEF7E5ED0D00CFEEF8E0E3EE68
:10139400E2FBE920F0E5E6E8EC3A20C2FBEAEBFEEA
:1013A400F7E5ED0D00DDF2EE20EFF0EEE3F0E0EC1A
:1013B400ECE020ECE8EDE8ECE8E7E0F6E8E820C152
:1013C400D40D00C2E2E5E4E8F2E520F4F3EDEAF638
:1013D400E8FE20E4EBFF20ECE8EDE8ECE8E7E0F6DB
:1013E400E8E80D00C2E2E5E4E5EDEDE0FF20F1F20E
:1013F400F0EEEAE03A2000D1F2F0EEEAE020F1204B
:10140400EEF8E8E1EAE0ECE82E20CFEEE2F2EEF0CE
:10141400E8F2E520E2E2EEE4210000C7E0EFF3F9B0
:10142400E5ED20EFF0EEF6E5F1F120ECE8EDE8EC87
:10143400E8E7E0F6E8E820F4F3EDEAF6E8E820EE81
:10144400F2200020EFE5F0E5ECE5EDEDFBF5000D15
:10145400CFEEEBF3F7E5EDE00020E8ECEFEBE8EAA4
:10146400E0EDF2E02000537461636B3A2000200049
:101474000D000DCCE8EDE8ECE8E7E0F6E8FF20E746
:10148400E0E2E5F0F8E5EDE00D000DC2E2E5E4B8D8
:10149400EDEDE0FF20F4F3EDEAF6E8FF2066203DF1
:0C14A40020310D0030313241424344271A
:00000001FF
